S01700004763634170706C69636174696F6E312E737265635B
S113000012C024C023C022C021C020C01FC01EC0F3
S11300101DC01CC01BC01AC019C018C017C016C010
S113002015C014C013C011241FBECFE5D4E0DEBF39
S1130030CDBF10E0A0E6B0E0E6E5F3E002C0059035
S11300400D92AE36B107D9F747D083C1D9CFCF933C
S1130050DF93CDB7DEB786E290E025E8FC0120838C
S113006087E290E025E0FC01208386E290E0FC0139
S11300708081853819F481E090E002C080E090E04E
S1130080DF91CF910895CF93DF9300D0CDB7DEB742
S11300901A82198286E290E026E230E0F90120819A
S11300A02064FC012083000086E290E0FC01808152
S11300B0882F90E080749927892BB1F784E290E02F
S11300C0FC01808191819A83898389819A810F902F
S11300D00F90DF91CF910895CF93DF9300D0CDB7E8
S11300E0DEB787E390E02FEFFC01208381E390E00B
S11300F02CE7FC01208382E0C2D0B2D082E0BFD0E2
S1130100A6DFC1DF9A83898380E810D080E690E07F
S11301108AD089819A814AE050E06AE670E0DCD0B6
S113012082D081E003D082E0AAD0EBCFCF93DF93DB
S113013000D01F92CDB7DEB78B831A82198288E371
S113014090E02B81FC0120838B81882F90E0807CC0
S113015099279A83898322E330E089819A819923BC
S11301600CF407969595879595958795959587951C
S1130170805FF901808381E082D022E330E08981CD
S11301809A8199230CF4079695958795959587956B
S113019095958795F901808381E071D00F900F9038
S11301A00F90DF91CF910895CF93DF9300D01F92EA
S11301B0CDB7DEB78B831A82198288E390E02B8156
S11301C0FC0120838B81882F90E0807C99279A837F
S11301D0898322E330E089819A8199230CF407967C
S11301E0959587959595879595958795805DF90162
S11301F0808382E044D022E330E089819A8199238C
S11302000CF407969595879595958795959587957B
S1130210805EF901808382E032D00F900F900F90BE
S1130220DF91CF910895CF93DF9300D0CDB7DEB7A0
S11302309A8389830AC089819A81FC018081B4DF11
S113024089819A8101969A83898389819A81FC01A3
S11302508081882381F70F900F90DF91CF910895CB
S1130260CF93DF93CDB7DEB788E360DF8EE05EDF48
S113027081E05CDF80E85ADFDF91CF910895CF936E
S1130280DF9300D000D01F92CDB7DEB78D831A82E2
S1130290198212C01C821B8205C08B819C8101962D
S11302A09C838B838B819C8188389341B4F38981AF
S11302B09A8101969A8389838D81282F30E08981E0
S11302C09A812817390734F70F900F900F900F90E9
S11302D00F90DF91CF9108954532510518F44230C3
S11302E008F004C0FB011082CB010895BB274A30FB
S11302F031F4992322F4BDE2909581959F4F01C07A
S1130300BB27FB015527AA27880F991FAA1FA417EB
S113031010F0A41B83955051B9F7A05DAA3308F0DF
S1130320A95DA193009779F7B111B1931192CB0113
S113033000C0DC01FC01672F71917723E1F732974C
S113034004C07C916D9370836291AE17BF07C8F3AC
S10903500895F894FFCFAC
S1110356566F6C746167653A20003130000008
S9030000FC
